S0150000476C6F7750726F7879585855322E737265631D
S1130000A9C00000C5C00000C3C00000C1C00000FA
S1130010BFC00000BDC00000BBC00000B9C00000EC
S1130020B7C00000B5C000009FC60000B1C000000A
S1130030AFC00000ADC00000ABC00000A9C000000C
S1130040A7C00000A5C00000A3C00000A1C000001C
S11300509FC000009DC000009BC0000099C000002C
S113006097C0000095C0000093C0000091C000003C
S11300708FC000008DC000008BC0000089C000004C
S113008087C0000085C0000083C0000081C000005C
S11300907FC000007DC00000A207CA07B508CA07D8
S11300A0B50809082C08B508830893081C03470001
S11300B06C006F007700500072006F0078007900C8
S11300C0200030002E003500000030035400720080
S11300D061006E0073006900730074006F007200A9
S11300E020004C00610062006F0072006100740027
S11300F06F007200690065007300000004030904C6
S113010009022200010100C03209040000010300B9
S113011000000921110100012220000705810308C4
S113012000051201100100000008EB034F2001003C
S1130130010200010600FF0901A1010902150025C1
S1130140FF7508950881020903150025FF750895B8
S1130150089102C011241FBECFEFD0E2DEBFCDBF95
S113016011E0A0E0B1E0E6E3F2E100E00BBF02C081
S113017007900D92A031B107D9F721E0A0E1B1E0D9
S113018001C01D92A532B207E1F769D00C94190998
S113019037CF292F332723303105C9F044F42130D8
S11301A0310509F439C02230310561F006C021322D
S11301B0310541F12232310551F180E090E020E037
S11301C030E033C082E290E020E031E02EC0992795
S11301D08130910559F08230910571F0892B09F530
S11301E0ECEFF0E0849190E09F011FC0EAECF0E0B6
S11301F0849190E09F0119C0ECEAF0E0849190E0D2
S11302009F0113C089E090E022E131E00EC080E25A
S113021090E024E331E009C082E190E022E231E0A1
S113022004C080E090E020E030E0FA0131832083D4
S1130230089584B7877F84BF88E10FB6F8948093CC
S11302406000109260000FBE90E080E80FB6F89452
S113025080936100909361000FBE6AC50895E9DF41
S1130260789480E091E086D1A6D7FBCF08950895D5
S113027080E091E06BD1E2EEF0E0808184608083E5
S1130280089580E091E01EC0089580910E01909140
S11302900F01009729F0019790930F0180930E01AD
S11302A008950F931F93F901108211821282138211
S11302B088E090E0F8019183808380E01F910F91A2
S11302C0089508953F924F925F926F927F928F921A
S11302D09F92AF92BF92CF92DF92EF92FF920F93D1
S11302E01F93CF93DF9300D01F92CDB7DEB76C017D
S11302F0EDB6FEB68091E80083FF0EC1F601808161
S113030090E020912101309122012817390709F04A
S113031003C180911E01833009F49BC030F4813005
S113032071F0823009F4DDC0F7C08A3009F4BDC031
S11303308B3009F4A6C0893009F0EEC04CC080911E
S11303401D01813A09F0E8C08DB69EB61A82198261
S1130350EFE1F1E0808111818B83F601408550E06B
S11303608DB79EB7841B950B0FB6F8949EBF0FBE36
S11303708DBFEDB7FEB731965F0160E070E0CF014D
S113038051D74FEF410F8E010F5F1F4F9501BE01F3
S11303906D5F7F4FC60185DFF601868197810097E7
S11303A021F0408550E0B50134D71092E90008EE01
S11303B010E0F8018081877F808369817A81C5019B
S11303C0F3D1F80180818B7780830FB6F8949EBEB9
S11303D00FBE8DBEA1C080911D01813209F09CC069
S11303E06DB67EB6A0902301B0902401EFE1F1E058
S11303F0508041808DB79EB78A199B090FB6F89437
S11304009EBF0FBE8DBFEDB7FEB731964F0108EE0C
S113041010E0F8018081877F8083B501C40138D260
S1130420F80180818E77808321E0511001C020E0A3
S113043030E08501021B130B280D391D4FEF440DCD
S1130440652DC6013EDF0FB6F8947EBE0FBE6DBEAD
S113045063C080911D01813A09F05EC0E8EEF0E0CE
S11304608081877F8083808180FFFDCFF601818535
S11304708093F100E8EEF0E080818E778083ADD345
S11304804BC080911D01813209F046C0E8EEF0E0D6
S11304908081877F8083A1D390911F0181E0911196
S11304A001C080E0F601818737C080911D0181324F
S11304B099F5E8EEF0E08081877F80838ED3809188
S11304C01F019091200188270024880F991F001C88
S11304D0880F991F001C892F902DF601958784871A
S11304E01BC080911D01813AB9F4E8EEF0E08081EF
S11304F0877F8083808180FFFDCFF6018485958589
S113050096958795969587958093F100E8EEF0E0AF
S113051080818E77808361D30FB6F894FEBE0FBEC0
S1130520EDBE0F900F900F90DF91CF911F910F911F
S1130530FF90EF90DF90CF90BF90AF909F908F90FF
S11305407F906F905F904F903F900895FC01399693
S113055027E0DF011D922A95E9F721E0FC012187BC
S113056024EF31E03587248723E0248361E001967A
S1130570D7C208955F926F927F928F929F92AF92AB
S1130580BF92CF92DF92EF92FF920F931F93CF937C
S1130590DF9300D01F92CDB7DEB77C01CDB6DEB6B7
S11305A080911C01843009F08AC08091E40090910C
S11305B0E500F701228533852817390709F47FC040
S11305C081818F708093E9008091E80085FF77C076
S11305D08DB69EB6408550E08DB79EB7841B950BB3
S11305E00FB6F8949EBF0FBE8DBFEDB7FEB7319620
S11305F05F011B821A82198260E070E0CF0112D67B
S11306008E010F5F1F4F950140E0BE016D5F7F4F6C
S1130610C70147DE682EF70124853585232B41F079
S113062021E086859785892B09F020E0522E01C0B0
S1130630512CF701068117810115110589F04981B3
S11306405A81B801C501D8D577247394892B09F44C
S1130650712CF701408550E0B501C801DAD501C01D
S1130660712C29813A81232BF1F0611004C071109F
S113067002C050FE18C0F701848595859787868748
S113068081818F708093E9008B8181118093F100C7
S113069069817A8140E050E0C50129D0E8EEF0E0BC
S11306A080818E7780838091E4009091E500F7014A
S11306B0938782870FB6F8949EBE0FBE8DBE0FB689
S11306C0F894DEBE0FBECDBE0F900F900F90DF9159
S11306D0CF911F910F91FF90EF90DF90CF90BF903B
S11306E0AF909F908F907F906F905F9008958F92BE
S11306F09F92AF92BF92CF92DF92EF92FF920F93AD
S11307001F93CF93DF937C01EB015A018AD28111AD
S11307103EC0A114B10439F0F50180819181C81B58
S1130720D90BE80EF91E209779F100E010E00F2EA6
S1130730F8EE8F2E912CF02D0F2EF1EFCF2ED12C21
S1130740F02DF401808185FD14C080818E77808333
S113075032D5A114B10449F0F50180819181080FCB
S1130760191F1183008385E012C05BD2882349F0EE
S11307700EC0F70181917F01F601808321970F5FFD
S11307801F4F2097F1F602C080E001C080E0DF91A6
S1130790CF911F910F91FF90EF90DF90CF90BF907A
S11307A0AF909F908F9008950F931F93CF93DF93F3
S11307B020912301309124012617370758F0611541
S11307C0710539F4E8EEF0E020812E7720839B0157
S11307D001C09B01A0E0E8EEF0E062EF70E0C1EF41
S11307E0D0E011E000E035C040911C01442309F43D
S11307F041C0453009F440C0408143FD3FC04081C1
S113080042FF03C0E8EEF0E030C0408140FF21C069
S1130810DB014D915C912115310599F0483051056A
S113082080F4A82FB92F8D9188838A2F9B2F215074
S113083031094F5F5F4F2115310519F048305105DB
S113084091F7A12F4830510509F0A02F40814E7730
S113085040832115310541F6A111C6CFD3CF809134
S11308601C01882369F0853069F0808182FFF7CF0D
S113087080E009C082E007C083E005C081E003C0D6
S113088082E001C083E0DF91CF911F910F91089521
S11308900F931F93CF93DF936115710529F4E8EE4D
S11308A0F0E020812B772083E8EEF0E002EF10E007
S11308B041EF50E01FC020911C012223C9F12530D3
S11308C0C9F1208123FD38C0208122FFF4CF40C02C
S11308D0EA0188818D938A2F9B2F615071096115DC
S11308E0710529F0E80128813981232B89F72081BA
S11308F02B7720836115710519F4E8EEF0E013C03D
S113090020911C012223D1F02530D1F0208123FD38
S113091019C0208122FD1CC0CECF80911C018823E8
S113092099F0853099F0808180FFF7CF80E018C07E
S113093082E016C083E014C081E012C082E010C0DF
S113094083E00EC081E00CC082E00AC083E008C0EE
S1130950D8012D913C91232B51F2A82FB92FB8CF58
S1130960DF91CF911F910F910895EF92FF921F9302
S1130970CF93DF9320912301309124012617370769
S113098058F06115710539F4E8EEF0E020812E7716
S113099020839B0101C09B01E82FF92F60E0A8EEA2
S11309A0B0E042EF50E00F2EF1EFEF2EF12CF02DDE
S11309B071E010E031C080911C01882309F43DC02E
S11309C0853009F43CC08C9183FD3BC08C9182FF3F
S11309D003C0E8EEF0E02CC08C9180FF1DC0EA015A
S11309E0888199812115310581F08830910568F459
S11309F06491E701688331962150310901962115EC
S1130A00310519F08830910599F7672F089709F097
S1130A10612F8C918E778C932115310561F66111CC
S1130A20CACFD7CF80911C01882369F0853069F043
S1130A30808182FFF7CF80E009C082E007C083E0B5
S1130A4005C081E003C082E001C083E0DF91CF9163
S1130A501F91FF90EF9008958F929F92BF92CF9233
S1130A60DF92EF92FF920F931F93CF93DF93873020
S1130A7070F126C0592F5F70E8015883891731F04F
S1130A80E901D8805081E401788103C05B2DD62E22
S1130A907C2D51FF12C04C914E7F4C9340814D7F71
S1130AA040834C9141604C93E901D8825083E40126
S1130AB07883E7015881552344F49F5F9730D1F63A
S1130AC08F708093E90081E01FC080E01DC0982FE3
S1130AD09F709093E900982F542FD62E70E0ABEEC0
S1130AE0B0E0EDEEF0E02CEE30E00F2EF0EF8F2EC4
S1130AF0912CF02D0F2EFEEEEF2EF12CF02D09EEA1
S1130B0010E0B42EC12CC5CFDF91CF911F910F916E
S1130B10FF90EF90DF90CF90BF909F908F900895BB
S1130B20BF92CF92DF92EF92FF920F931F93CF93D6
S1130B30DF93062F662309F441C0C82FD92F10E094
S1130B40F12C6894DD24D3F8E12C6894BB24B1F82B
S1130B500F2EF6E0CF2EF02D5881552351F19C81B4
S1130B60E981FA817B81852F8F70873048F5923037
S1130B7010F04C2D01C04B2DE930F10550F02D2D16
S1130B803E2D9F2D9F5F220F331F2E173F07D0F35B
S1130B9001C09F2D9295907F492B551F5527551FB6
S1130BA090E4799F90011124652F622B55DF8823EF
S1130BB051F01F5F25961013CFCF04C081E003C00E
S1130BC080E001C081E0DF91CF911F910F91FF90F0
S1130BD0EF90DF90CF90BF90089580911D018823FE
S1130BE01CF0E8EEF0E014C0E8EEF0E004C0809100
S1130BF01C018823A9F0808182FFF9CFE8EEF0E0A0
S1130C0080818B778083089580911C01882341F033
S1130C10808180FFF9CFE8EEF0E080818E778083D9
S1130C2008950F931F93CF93DF932091E4003091A5
S1130C30E50065E6ACEEB0E0E8EEF0E00BEE10E0C7
S1130C4044EE50E08C9180FD21C024C080911C01B1
S1130C50882381F0853081F0E801888185FD0EC00C
S1130C60EA01888199812817390761F3615041F0BD
S1130C709C01E8CF82E012C083E010C081E00EC086
S1130C8084E00CC080E00AC080E008C0808180FF5E
S1130C90DDCFF8CF808182FFD9CFF6CFDF91CF911E
S1130CA01F910F9108950F931F93CF93DF934FD00C
S1130CB056D0C8EDD0E088818F778883888180689A
S1130CC0888388818F7D8883E7EDF0E08081806868
S1130CD0808319BC10921C011092180110921A0101
S1130CE01092190100EE10E0F80180818B7F80835F
S1130CF088818160888342E060E080E0ADDEE1EEDF
S1130D00F0E080818E7F8083E2EEF0E0808181607C
S1130D108083808188608083F80180818E7F8083D6
S1130D20888180618883DF91CF911F910F9108950D
S1130D30E8EDF0E080818F7E8083E7EDF0E0808154
S1130D408160808381E080931B01ADCF0895E8ED3D
S1130D50F0E080818C7F80831092E20008951092ED
S1130D60DA001092E10008951F920F920FB60F92CD
S1130D7011240BB60F922F933F934F935F936F936E
S1130D807F938F939F93AF93BF93EF93FF93809140
S1130D90E10082FF0AC08091E20082FF06C0E1EE1A
S1130DA0F0E080818B7F808370DA8091DA0080FFAD
S1130DB01DC08091D80080FF19C0EAEDF0E0808169
S1130DC08E7F80838091D90080FF0CC084E189BD2F
S1130DD086E189BD09B400FEFDCF81E080931C014A
S1130DE045DA04C019BC10921C0141DA8091E1007B
S1130DF080FF16C08091E20080FF12C0E2EEF0E0B6
S1130E0080818E7F8083808180618083E8EDF0E043
S1130E1080818062808319BC85E080931C01CAD1E3
S1130E208091E10084FF2FC08091E20084FF2BC0F9
S1130E3084E189BD86E189BD09B400FEFDCFE8EDFA
S1130E40F0E080818F7D8083E1EEF0E080818F7E11
S1130E508083E2EEF0E080818F7E808380818160F8
S1130E60808380911801882321F084E080931C0101
S1130E7009C08091E300882314F483E001C081E079
S1130E8080931C0197D18091E10083FF1EC0809163
S1130E90E20083FF1AC0E1EEF0E08081877F808367
S1130EA082E080931C011092180180818E7F8083E0
S1130EB0E2EEF0E080818E7F808380818061808398
S1130EC042E060E080E0C8DD75D1FF91EF91BF9111
S1130ED0AF919F918F917F916F915F914F913F91CE
S1130EE02F910F900BBE0F900FBE0F901F9018956F
S1130EF00F931F93CF93DF93CDB7DEB7AA970FB6A7
S1130F00F894DEBF0FBECDBFEDE1F1E085E291E0E4
S1130F10A1EFB0E02C912193E817F907D9F7B1D9E3
S1130F208091E80083FF21C130911D0120911E01B1
S1130F30822F90E08A30910508F017C1FC01E45B30
S1130F40FF4F54C1303821F0323809F00EC108C0C7
S1130F508091190190911A01992371F082600CC05B
S1130F60809121018F70E9EEF0E080838091EB00A5
S1130F7085FB882780F91082E8EEF0E09081977F66
S1130F809083A1EFB0E08C931C9280818E77808354
S1130F9024DEEBC0332309F4F7C0323009F0E5C096
S1130FA0F8C081E0233009F080E080931A0128C062
S1130FB0209121012F7009F4D8C02093E900809179
S1130FC0EB0080FF1DC080911E01833031F4EBEEF5
S1130FD0F0E080818062808313C0EBEEF0E08081DA
S1130FE08061808381E090E002C0880F991F2A9578
S1130FF0E2F7AAEEB0E08C931C9280818860808333
S11310001092E900E8EEF0E08081877F8083E5DDDF
S1131010ACC03111AAC010911F011F77E3EEF0E0BC
S113102080818078812B8083E8EEF0E08081877F67
S11310308083D3DDE8EEF0E0808180FFFDCFE3EE36
S1131040F0E0808180688083112311F083E001C087
S113105082E080931C0189C03058323008F085C08A
S113106080911F01909120018C3D23E0920799F516
S113107083E08A838AE289835FB7F894DE0113965A
S113108020E03EE041E2E32FF0E0409357008491FA
S113109020FF03C082958F703F5F8F708A3018F0F5
S11310A090E0C79602C090E0C0968D939D932F5F09
S11310B0243149F75FBF08EE10E0F8018081877F93
S11310C080836AE270E0CE0101966EDBF8018081D4
S11310D08B7780834AC0AE014F5F5F4F60912101DF
S11310E058D8009709F441C008EE10E0F8012081B7
S11310F0277F2083BC0189819A8137DCF8018081B4
S11311008B77808332C0303881F5E8EEF0E080815F
S1131110877F8083809118018093F10080818E778E
S113112080835BDD22C0311120C080911F01823099
S1131130E0F4E8EEF0E08081877F808380911F01F6
S1131140809318014ADD80911801882321F084E0FE
S113115080931C0109C08091E300882314F484E087
S113116001C081E080931C0183D88091E80083FF53
S113117016C0E8EEF0E08081877F8083EBEEF0E03C
S11311808081806280830BC080911F01813069F768
S113119008CF80911F01882309F40ACF31CFAA9682
S11311A00FB6F894DEBF0FBECDBFDF91CF911F9174
S11311B00F9108950895CF9380911C018823A1F085
S11311C0C091E900CF708091EC0080FF02C080E8FC
S11311D001C080E0C82B1092E9008091E80083FDF3
S11311E087DECF70C093E900CF910895EE0FFF1F03
S11311F00590F491E02D0994FB01DC0104C08D916C
S11312000190801921F441505040C8F7881B990B74
S11312100895FB01DC0102C001900D924150504041
S1131220D8F70895DC0101C06D9341505040E0F7B8
S10912300895F894FFCFBD
S11312360081080000011001080000000000000001
S9030000FC
