S0150000476C6F7750726F7879585855322E737265631D
S113000099C00000B3C00000B1C00000AFC0000040
S1130010ADC00000ABC00000A9C00000A7C0000034
S1130020A5C00000A3C00000A1C000003BC70000A1
S11300309DC000009BC0000099C0000097C0000054
S113004095C0000093C0000091C000008FC0000064
S11300508DC000008BC0000089C0000087C0000074
S113006085C0000083C0000081C000007FC0000084
S11300707DC000001D083F0824093F0824098108A9
S1130080A3082409F6080809200347006C006F0040
S11300907700500072006F00780079002000410062
S11300A06C007000680061000000300354007200AE
S11300B061006E0073006900730074006F007200C9
S11300C020004C00610062006F0072006100740047
S11300D06F007200690065007300000004030904E6
S11300E009022200010100C03209040000010300DA
S11300F000000921110100012220000705810308E5
S113010000051201100100000008EB034F2001005C
S1130110010200010600FF0901A1010902150025E1
S1130120FF7508950881020903150025FF750895D8
S1130130089102C011241FBECFEFD4E0DEBFCDBFB3
S113014011E0A0E0B1E0ECEFF2E102C005900D9205
S1130150AE32B107D9F721E0AEE2B1E001C01D92A1
S1130160A036B207E1F71DD20C947C0949CF292FA0
S1130170332723303105B9F05CF42130310569F1BE
S11301802230310579F582E290E020EE30E02EC095
S113019021323105E9F02232310521F580E290E087
S11301A024E131E023C099278130910541F0823068
S11301B0910541F0892BB1F4ECEDF0E005C0EAEAD9
S11301C0F0E002C0E8E8F0E0849190E09F010EC006
S11301D089E090E022EF30E009C082E190E022E083
S11301E031E004C080E090E020E030E0FA013183A7
S11301F020830895E0E8F0E0808181608083A1E8B5
S1130200B0E08C9188608C938081806C8083808145
S11302108063808380818C60808310928900109237
S1130220880010928B0010928A0010928D00109218
S11302308C008AB181688AB987B1846E87B984B128
S1130240816F84B98C9181608C935398549856989B
S11302505B9A5C9A5E9A0895909336018093350177
S11302607093340160933301509332014093310110
S11302703093300120932F010895E0913901F0E08B
S113028089B18095E65CFE4F8083809139018F5F50
S11302908093390180E090E02FEFFC01E65CFE4F93
S11302A030812323019685309105B9F7809140016F
S11302B080933F01287520934001909140018091E3
S11302C03F0180958923809338018091400190916A
S11302D03F018095892380933701809139018530CE
S11302E010F01092390180913801882309F443C039
S11302F0809138018871B9F190910101891312C07C
S1130300883029F0803131F41092010103C080E17A
S11303108093010181E080932E01E0913101F091FD
S1130320320115C090910001891315C0883031F055
S1130330803131F488E08093000102C01092000102
S113034082E080932E01E0912F01F09130013097EB
S113035051F0099508C010922E0188E080930101A4
S113036080E18093000180913801E0913501F091A2
S113037036018074099580913701882381F1809139
S11303803701887121F180912E01813071F48091BF
S1130390010181111CC010922E0188E0809301019B
S11303A0E0913101F09132010FC0823081F48091EB
S11303B0000181110CC010922E0180E18093000194
S11303C0E0912F01F0913001309709F00995809167
S11303D03701E0913301F091340180740994089558
S11303E0CF93DF93A5E1B1E0E5E2F1E080E090E0B6
S11303F021E030E0C091480140914101841788F424
S11304006091420170E0709389006093880060916C
S1130410430170E070938B0060938A006091440103
S113042010C06091450170E070938900609388006A
S11304306091460170E070938B0060938A00609134
S1130440470170E070938D0060938C00A901082E21
S113045001C0440F0A94EAF74C2369F0CD91DC9172
S113046011976881A901008002C0440F551F0A94A6
S1130470E2F7642B6883C0910301D0910401688181
S1130480A9010090020102C0440F551F0A94E2F72B
S11304904095462348834D915D91509304014093C8
S11304A00301419140930201CFE1D3E02197F1F799
S11304B000C0000001968830910509F09BCFE091BF
S11304C00301F0910401208181E090E00090020199
S11304D002C0880F991F0A94E2F7809582238083D3
S11304E0DF91CF9108958FEF809342018093430170
S11304F08093440180934501809346018093470192
S113050080934801089585E290E0909304018093DC
S1130510030184E08093020180934101E4DF8FEFC3
S1130520E2E4F1E0108211828283E5E4F1E01082DA
S113053081831282089580934A0108958095909151
S11305404A01982390934A010895809149018F5F4D
S11305508093490108958091490181508093490114
S1130560089584B7877F84BF88E10FB6F894809399
S11305706000109260000FBE90E080E80FB6F8941F
S113058080936100909361000FBE7DD433DE2BEA2B
S113059032E045EA52E06EE972E08BE992E05CDE1B
S11305A0B2CFDFDF789485E091E072D166D665DE64
S11305B017DFF9CF0895089585E091E056D1E2EE72
S11305C0F0E0808184608083089585E091E01FC01D
S11305D08091130190911401009729F00197909351
S11305E014018093130108950F931F9388E090E002
S11305F0F8019183808380914A01F901808380917D
S11306004901818380E01F910F91089508956F92AD
S11306107F928F929F92AF92BF92CF92DF92EF928E
S1130620FF920F931F93CF93DF9300D01F92CDB708
S1130630DEB77C01ADB6BEB68091E80083FFFEC094
S1130640F701808190E020915C0130915D012817D1
S1130650390709F0F3C080915901833009F495C03A
S113066030F4813071F0823009F4CCC0E7C08A30B4
S113067009F4B0C08B3009F499C0893009F0DEC0A8
S113068047C080915801813A09F0D8C08DB69EB612
S11306901A82198280915A0110915B018B83F701B0
S11306A0408550E08DB79EB7841B950B0FB6F89428
S11306B09EBF0FBE8DBFEDB7FEB731966F0160E0F0
S11306C070E0CF0112D64FEF410F8E010F5F1F4F25
S11306D09601BE016D5F7F4FC70186DFF7018681FA
S11306E09781009721F0408550E0B601F5D510922E
S11306F0E9008091E800877F8093E80069817A812E
S1130700C601CBD18091E8008B778093E80037C095
S113071080915801813209F091C08DB69EB6009146
S11307205E0110915F0170905A0160905B018DB77A
S11307309EB7801B910B0FB6F8949EBF0FBE8DBF62
S1130740EDB7FEB731966F018091E800877F809303
S1130750E800B801CF0100D28091E8008E77809341
S1130760E80021E0711001C020E030E0021B130B0F
S11307702C0D3D1D4FEF460D672DC70147DF0FB60A
S1130780F8949EBE0FBE8DBE59C080915801813A27
S113079009F054C08091E800877F8093E80080913D
S11307A0E80080FFFCCFF701818540C080915801AB
S11307B0813209F043C08091E800877F8093E8008C
S11307C0D8D290915A0181E0911101C080E0F701E3
S11307D0818734C080915801813281F58091E8008D
S11307E0877F8093E800C5D280915A0190915B0184
S11307F0882736E0969587953A95E1F7F70195872E
S113080084871CC080915801813AC1F48091E8002A
S1130810877F8093E8008091E80080FFFCCFF70198
S11308208485958596958795969587958093F1000F
S11308308091E8008E778093E8009BD20FB6F894FD
S1130840BEBE0FBEADBE0F900F900F90DF91CF9143
S11308501F910F91FF90EF90DF90CF90BF90AF90DA
S11308609F908F907F906F900895FC01399627E0B8
S1130870DF011D922A95E9F721E0FC01218724EF8D
S113088031E03587248723E0248361E0019635C273
S11308905F926F927F928F929F92AF92BF92CF920C
S11308A0DF92EF92FF920F931F93CF93DF9300D0C9
S11308B01F92CDB7DEB77C01ADB6BEB680915701AD
S11308C0843009F08AC08091E4009091E500F7013A
S11308D0228533852817390709F47FC081818F70F9
S11308E08093E9008091E80085FF77C08DB69EB6BD
S11308F0408550E08DB79EB7841B950B0FB6F894D6
S11309009EBF0FBE8DBFEDB7FEB731966F011B8240
S11309101A82198260E070E0CF01E7D48E010F5F84
S11309201F4F960140E0BE016D5F7F4FC7015CDE43
S1130930682EF70184859585892B41F021E0868511
S11309409785892B09F020E0722E01C0712CF701E4
S1130950068117810115110589F049815A81B80171
S1130960C601ADD455245394892B09F4512CF701B5
S1130970408550E0B601C801AFD401C0512C298193
S11309803A81232BF1F0611004C0511002C070FEB3
S113099018C0F701848595859787868781818F7034
S11309A08093E9008B8181118093F10069817A81C0
S11309B040E050E0C60129D08091E8008E77809312
S11309C0E8008091E4009091E500F7019387828725
S11309D00FB6F8949EBE0FBE8DBE0FB6F894BEBE81
S11309E00FBEADBE0F900F900F90DF91CF911F916E
S11309F00F91FF90EF90DF90CF90BF90AF909F90BA
S1130A008F907F906F905F900895CF92DF92EF92D6
S1130A10FF920F931F93CF93DF937C018B01EA0125
S1130A20C9D1811131C0209731F088819981081B87
S1130A30190BE80EF91EC12CD12C0115110519F161
S1130A408091E80085FD14C08091E8008E77809342
S1130A50E80013D4209741F0888199818C0D9D1D65
S1130A609983888385E010C0A5D1882331F30CC015
S1130A70F70181917F018093F10001501109FFEF8B
S1130A80CF1ADF0ADACF80E0DF91CF911F910F9167
S1130A90FF90EF90DF90CF90089520915E01309108
S1130AA05F012617370748F06115710539F4209165
S1130AB0E8002E772093E80001C0B90120E0611519
S1130AC07105D1F130915701332309F441C0353018
S1130AD009F440C03091E80033FD38C03091E8009B
S1130AE032FF06C08091E80082FF29C080E00895AB
S1130AF03091E80030FFE3CF2091F20030E0FC01B8
S1130B00281B390BCF01820F931F6115710549F022
S1130B108830910530F481918093F100615071091E
S1130B20F1CF21E0089709F020E08091E8008E776A
S1130B308093E800CF01C3CF2111C4CFD3CF8091DC
S1130B405701882329F0853069F604C081E00895AF
S1130B5082E0089583E008956115710529F42091D8
S1130B60E8002B772093E8006115710521F12091AD
S1130B705701222349F1253049F12091E80023FD52
S1130B801FC02091E80022FFF2CFFC01CF01209189
S1130B90F200222321F38091F1008193CF0161506F
S1130BA071096115710591F7DACF80915701882396
S1130BB059F0853059F08091E80080FFF6CF02C0EB
S1130BC081E0089580E0089582E0089583E0089527
S1130BD020915E0130915F012617370748F06115B7
S1130BE0710539F42091E8002E772093E80001C0C4
S1130BF0B90120E061157105D9F130915701332312
S1130C0009F442C0353009F441C03091E80033FDA5
S1130C1039C03091E80032FF06C08091E80082FFBD
S1130C202AC080E008953091E80030FFE3CF20919E
S1130C30F20030E0FC01281B390BC9018E0F9F1F05
S1130C406115710551F08830910538F484918093D1
S1130C50F100319661507109F0CF21E0089709F055
S1130C6020E08091E8008E778093E800CF01C2CF26
S1130C702111C3CFD2CF80915701882329F0853029
S1130C8061F604C081E0089582E0089583E0089548
S1130C90982F953058F59093E900981739F0709192
S1130CA0EC002091ED005091F00003C0242F762F2A
S1130CB050E021FF19C03091EB003E7F3093EB00F0
S1130CC03091ED003D7F3093ED003091EB003160C9
S1130CD03093EB007093EC002093ED005093F00000
S1130CE02091EE0027FF07C09F5FD3CF8F708093C2
S1130CF0E90081E0089580E008950F931F93CF9356
S1130D00DF93062FEC0110E0101769F19881992305
S1130D1039F12C81E981FA816B81892F8F708530BB
S1130D2010F080E021C0223010F056E001C052E003
S1130D3028E030E040E02E173F0720F44F5F220FF9
S1130D40331FF9CF4295407F452B991F9927991F4F
S1130D506295660F660F607C692B9ADF882309F31E
S1130D601F5F2596D1CF81E0DF91CF911F910F9125
S1130D7008958091580187FD05C08091E80080FFA7
S1130D800EC012C08091E80082FD05C08091570119
S1130D908111F8CF08958091E8008B7708C0809185
S1130DA057018111EACF08958091E8008E778093EE
S1130DB0E80008958091E4009091E50045E62091D3
S1130DC0EC0020FF21C02091E80020FD21C02091EB
S1130DD05701222389F0253089F02091EB0025FD6D
S1130DE00FC02091E4003091E5002817390739F34A
S1130DF0415041F0C901E3CF82E0089583E00895B2
S1130E0081E0089584E008952091E80022FFDFCF77
S1130E1080E0089541D043D08091D8008F778093AB
S1130E20D8008091D80080688093D8008091D80041
S1130E308F7D8093D80084E089BD86E089BD09B4A4
S1130E4000FEFDCF109257011092530110925501EC
S1130E501092540142E060E080E01ADF8091E100EA
S1130E608E7F8093E1008091E20081608093E200B4
S1130E708091E20088608093E2008091E0008E7FA0
S1130E808093E0000895E3E6F0E080818E7F808324
S1130E9081E080935601BECF1092E2000895109233
S1130EA0E10008951F920F920FB60F9211242F9311
S1130EB03F934F935F936F937F938F939F93AF93DE
S1130EC0BF93EF93FF938091E10082FF0AC080916A
S1130ED0E20082FF06C08091E1008B7F8093E100F5
S1130EE077DB8091E10080FF17C08091E20080FFF2
S1130EF013C08091E2008E7F8093E2008091E20033
S1130F0080618093E2008091D80080628093D80051
S1130F1019BC109257014FDB8091E10084FF2FC070
S1130F208091E20084FF2BC084E089BD86E089BD06
S1130F3009B400FEFDCF8091D8008F7D8093D80046
S1130F408091E1008F7E8093E1008091E2008F7EAA
S1130F508093E2008091E20081608093E2008091BE
S1130F605301882311F084E007C08091E30087FFD8
S1130F7002C083E001C081E0809357011BDB8091B4
S1130F80E10083FF22C08091E20083FF1EC08091B4
S1130F90E100877F8093E10082E080935701109203
S1130FA053018091E1008E7F8093E1008091E20003
S1130FB08E7F8093E2008091E20080618093E20062
S1130FC042E060E080E064DE57D1FF91EF91BF9191
S1130FD0AF919F918F917F916F915F914F913F91CD
S1130FE02F910F900FBE0F901F9018951F93CF93C2
S1130FF0DF93CDB7DEB7AA970FB6F894DEBF0FBE66
S1131000CDBFE8E5F1E08091F100819321E0E03685
S1131010F207C9F7DADA8091E80083FF15C120915D
S1131020580130915901832F90E08A30910508F0DE
S11310300BC1FC01E65CFF4F3CC1203881F0223833
S113104009F002C180915C018F708093E900809166
S1131050EB0085FB882780F91092E90006C0809197
S1131060540190915501911182609091E800977F0D
S11310709093E8008093F1001092F100C2C0822F97
S11310808D7F09F0E1C0222319F0223061F0DCC029
S113109080915A01813009F0D7C0333009F080E0E3
S11310A08093550128C080915A01811124C0209158
S11310B05C012F7009F4C8C02093E9008091EB0013
S11310C080FF19C08091EB00333011F4806211C0AD
S11310D080618093EB0081E090E0022E01C0880FD4
S11310E00A94EAF78093EA001092EA008091EB00F8
S11310F088608093EB001092E9008091E800877F7C
S113110083C02111A1C010915A011F778091E3007F
S11311108078812B8093E3008091E800877F80931F
S1131120E80027DE8091E80080FFFCCF8091E30097
S113113080688093E300112311F083E001C082E012
S11311408093570181C02058223008F07DC08091DF
S11311505A0190915B018C3D23E0920771F583E085
S11311608A838AE289834FB7F894DE01139620E0DC
S11311703EE051E2E32FF0E050935700E49120FF6A
S113118003C0E295EF703F5FEF708E2F90E0EA307E
S113119010F0C79601C0C0968D939D932F5F2431A4
S11311A049F74FBF8091E800877F8093E8006AE2A7
S11311B070E0CE01019671DC13C0AE014F5F5F4F4A
S11311C060915C010E94B700009709F43DC0209132
S11311D0E800277F2093E800BC0189819A81F8DC2C
S11311E08091E8008B778093E8002EC0203861F569
S11311F08091E800877F8093E80080915301809379
S1131200F1008091E8008E778093E800B2DD1CC085
S113121021111AC090915A019230B0F48091E800E3
S1131220877F8093E80090935301A3DD809153015D
S1131230811104C08091E30087FF02C084E001C0F3
S113124081E080935701B8D98091E80083FF0AC0F8
S11312508091E800877F8093E8008091EB008062B2
S11312608093EB00AA960FB6F894DEBF0FBECDBFF5
S1131270DF91CF911F9108950895CF9380915701E5
S11312808823A9F08091E9008F709091EC0090FF81
S113129002C090E801C090E0C92FC82B1092E90069
S11312A08091E80083FDA2DECF70C093E900CF9166
S11312B00895EE0FFF1F0590F491E02D0994FB01B2
S11312C0DC0104C08D910190801921F441505040FB
S11312D0C8F7881B990B0895FB01DC0102C001903B
S11312E00D9241505040D8F70895DC0101C06D9330
S10F12F041505040E0F70895F894FFCFFF
S11312FC10080425000081080000014B01080000BF
S113130C0000000000250028002B002B00250025E0
S111131C002800250004020007000607050053
S9030000FC
