:1000000099C00000B3C00000B1C00000AFC0000044
:10001000ADC00000ABC00000A9C00000A7C0000038
:10002000A5C00000A3C00000A1C0000077C600006A
:100030009DC000009BC0000099C0000097C0000058
:1000400095C0000093C0000091C000008FC0000068
:100050008DC000008BC0000089C0000087C0000078
:1000600085C0000083C0000081C000007FC0000088
:100070007DC0000059077B075F087B075F08BD074D
:10008000DF075F0831084308200347006C006F005A
:100090007700500072006F00780079002000410066
:1000A0006C007000680061000000300354007200B2
:1000B00061006E0073006900730074006F007200CD
:1000C00020004C00610062006F007200610074004B
:1000D0006F007200690065007300000004030904EA
:1000E00009022200010100C03209040000010300DE
:1000F00000000921110100012220000705810308E9
:1001000000051201100100000008EB034F20010060
:10011000010200010600FF0901A1010902150025E5
:10012000FF7508950881020903150025FF750895DC
:10013000089102C011241FBECFEFD2E0DEBFCDBFB9
:1001400011E0A0E0B1E0E2E7F1E102C005900D921C
:10015000A231B107D9F721E0A2E1B1E001C01D92BF
:10016000AC33B207E1F75AD10C94B70849CF292F25
:10017000332723303105B9F05CF42130310569F1C2
:100180002230310579F582E290E020EE30E02EC099
:1001900021323105E9F02232310521F580E290E08B
:1001A00024E131E023C099278130910541F082306C
:1001B000910541F0892BB1F4ECEDF0E005C0EAEADD
:1001C000F0E002C0E8E8F0E0849190E09F010EC00A
:1001D00089E090E022EF30E009C082E190E022E087
:1001E00031E004C080E090E020E030E0FA013183AB
:1001F00020830895E0E8F0E0808181608083A1E8B9
:10020000B0E08C9188608C938081806C8083808149
:100210008063808380818C6080831092890010923B
:10022000880010928B0010928A0010928D0010921C
:100230008C008C9181608C935398549855985B9A5C
:100240005C9A5D9A089590931A01809319017093B6
:1002500018016093170150931601409315013093D4
:100260001401209313010895E0911D01F0E089B17C
:100270008095E25EFE4F808380911D018F5F8093A9
:100280001D0180E090E02FEFFC01E25EFE4F308127
:100290002323019685309105B9F78091240180933D
:1002A000230128732093240190912401809123013C
:1002B0008095892380931C018091240190912301D2
:1002C0008095892380931B0180911D01853010F05A
:1002D00010921D0180911C018823B1F180911C01B5
:1002E000887151F19091010189130CC0883029F077
:1002F000803131F41092010103C080E1809301014B
:1003000081E00FC09091000189130EC0883031F058
:10031000803131F488E08093000102C01092000126
:1003200082E08093120108C01092120188E080934D
:10033000010180E18093000180911C01E09119018D
:10034000F0911A018072099580911B01882381F137
:1003500080911B01887121F180911201813071F42B
:100360008091010181111CC01092120188E08093DC
:100370000101E0911501F09116010FC0823081F466
:100380008091000181110CC01092120180E18093D4
:100390000001E0911301F0911401309709F00995E3
:1003A00080911B01E0911701F0911801807209946E
:1003B00008958093260108958095909126019823B1
:1003C000909326010895809125018F5F80932501E8
:1003D000089580912501815080932501089584B767
:1003E000877F84BF88E10FB6F894809360001092F5
:1003F00060000FBE90E080E80FB6F8948093610033
:10040000909361000FBE7BD4F5DE29EE31E043EE20
:1004100051E06CED71E089ED91E015CFE0DF78946B
:1004200082E091E071D164D61FDFFACF089508957C
:1004300082E091E056D1E2EEF0E08081846080833A
:10044000089582E091E01FC0809110019091110108
:10045000009729F00197909311018093100108955E
:100460000F931F9388E090E0F8019183808380913F
:100470002601F901808380912501818380E01F910D
:100480000F91089508956F927F928F929F92AF92ED
:10049000BF92CF92DF92EF92FF920F931F93CF9371
:1004A000DF9300D01F92CDB7DEB77C01ADB6BEB6EC
:1004B0008091E80083FFFEC0F701808190E02091E9
:1004C0003801309139012817390709F0F3C08091BC
:1004D0003501833009F495C030F4813071F08230F9
:1004E00009F4CCC0E7C08A3009F4B0C08B3009F4FD
:1004F00099C0893009F0DEC047C080913401813A4B
:1005000009F0D8C08DB69EB61A8219828091360144
:10051000109137018B83F701408550E08DB79EB76E
:10052000841B950B0FB6F8949EBF0FBE8DBFEDB721
:10053000FEB731966F0160E070E0CF0111D64FEF4A
:10054000410F8E010F5F1F4F9601BE016D5F7F4F00
:10055000C70186DFF70186819781009721F04085EA
:1005600050E0B601F4D51092E9008091E800877F51
:100570008093E80069817A81C601CBD18091E8003F
:100580008B778093E80037C080913401813209F085
:1005900091C08DB69EB600913A0110913B017090CA
:1005A0003601609037018DB79EB7801B910B0FB657
:1005B000F8949EBF0FBE8DBFEDB7FEB731966F01A9
:1005C0008091E800877F8093E800B801CF0100D2D6
:1005D0008091E8008E778093E80021E0711001C0DF
:1005E00020E030E0021B130B2C0D3D1D4FEF460D9C
:1005F000672DC70147DF0FB6F8949EBE0FBE8DBEB4
:1006000059C080913401813A09F054C08091E800CA
:10061000877F8093E8008091E80080FFFCCFF7019E
:10062000818540C080913401813209F043C08091BE
:10063000E800877F8093E800D8D29091360181E06E
:10064000911101C080E0F701818734C080913401AD
:10065000813281F58091E800877F8093E800C5D2E0
:100660008091360190913701882736E096958795DD
:100670003A95E1F7F701958784871CC08091340192
:10068000813AC1F48091E800877F8093E8008091EF
:10069000E80080FFFCCFF7018485958596958795C6
:1006A000969587958093F1008091E8008E778093EE
:1006B000E8009BD20FB6F894BEBE0FBEADBE0F9041
:1006C0000F900F90DF91CF911F910F91FF90EF90BE
:1006D000DF90CF90BF90AF909F908F907F906F9062
:1006E0000895FC01399627E0DF011D922A95E9F76C
:1006F00021E0FC01218724EF31E03587248723E0C6
:10070000248361E0019635C25F926F927F928F924F
:100710009F92AF92BF92CF92DF92EF92FF920F9390
:100720001F93CF93DF9300D01F92CDB7DEB77C012C
:10073000ADB6BEB680913301843009F08AC0809195
:10074000E4009091E500F7012285338528173907E9
:1007500009F47FC081818F708093E9008091E80067
:1007600085FF77C08DB69EB6408550E08DB79EB7A9
:10077000841B950B0FB6F8949EBF0FBE8DBFEDB7CF
:10078000FEB731966F011B821A82198260E070E019
:10079000CF01E6D48E010F5F1F4F960140E0BE01EE
:1007A0006D5F7F4FC7015CDE682EF70184859585FC
:1007B000892B41F021E086859785892B09F020E07F
:1007C000722E01C0712CF7010681178101151105E8
:1007D00089F049815A81B801C601ACD4552453949B
:1007E000892B09F4512CF701408550E0B601C8016E
:1007F000AED401C0512C29813A81232BF1F0611034
:1008000004C0511002C070FE18C0F70184859585A0
:100810009787868781818F708093E9008B81811112
:100820008093F10069817A8140E050E0C60129D0CF
:100830008091E8008E778093E8008091E4009091A9
:10084000E500F701938782870FB6F8949EBE0FBE2E
:100850008DBE0FB6F894BEBE0FBEADBE0F900F900A
:100860000F90DF91CF911F910F91FF90EF90DF904C
:10087000CF90BF90AF909F908F907F906F905F9040
:100880000895CF92DF92EF92FF920F931F93CF9331
:10089000DF937C018B01EA01C9D1811131C020971E
:1008A00031F088819981081B190BE80EF91EC12CC3
:1008B000D12C0115110519F18091E80085FD14C0B6
:1008C0008091E8008E778093E80012D4209741F061
:1008D000888199818C0D9D1D9983888385E010C046
:1008E000A5D1882331F30CC0F70181917F0180935A
:1008F000F10001501109FFEFCF1ADF0ADACF80E0D3
:10090000DF91CF911F910F91FF90EF90DF90CF90EB
:10091000089520913A0130913B012617370748F09E
:100920006115710539F42091E8002E772093E800D5
:1009300001C0B90120E061157105D1F13091330199
:10094000332309F441C0353009F440C03091E80048
:1009500033FD38C03091E80032FF06C08091E800D6
:1009600082FF29C080E008953091E80030FFE3CF96
:100970002091F20030E0FC01281B390BCF01820FDF
:10098000931F6115710549F08830910530F481910C
:100990008093F10061507109F1CF21E0089709F0CF
:1009A00020E08091E8008E778093E800CF01C3CFEC
:1009B0002111C4CFD3CF80913301882329F0853012
:1009C00069F604C081E0089582E0089583E0089507
:1009D0006115710529F42091E8002B772093E80038
:1009E0006115710521F120913301222349F1253050
:1009F00049F12091E80023FD1FC02091E80022FF6B
:100A0000F2CFFC01CF012091F200222321F380914B
:100A1000F1008193CF01615071096115710591F762
:100A2000DACF80913301882359F0853059F08091D5
:100A3000E80080FFF6CF02C081E0089580E00895CD
:100A400082E0089583E0089520913A0130913B01BE
:100A50002617370748F06115710539F42091E80031
:100A60002E772093E80001C0B90120E061157105DF
:100A7000D9F130913301332309F442C0353009F400
:100A800041C03091E80033FD39C03091E80032FFB9
:100A900006C08091E80082FF2AC080E0089530916E
:100AA000E80030FFE3CF2091F20030E0FC01281B8A
:100AB000390BC9018E0F9F1F6115710551F08830E8
:100AC000910538F484918093F10031966150710959
:100AD000F0CF21E0089709F020E08091E8008E77C0
:100AE0008093E800CF01C2CF2111C3CFD2CF809134
:100AF0003301882329F0853061F604C081E0089530
:100B000082E0089583E00895982F953058F59093EA
:100B1000E900981739F07091EC002091ED005091A8
:100B2000F00003C0242F762F50E021FF19C0309130
:100B3000EB003E7F3093EB003091ED003D7F309332
:100B4000ED003091EB0031603093EB007093EC00DE
:100B50002093ED005093F0002091EE0027FF07C096
:100B60009F5FD3CF8F708093E90081E0089580E08C
:100B700008950F931F93CF93DF93062FEC0110E09E
:100B8000101769F19881992339F12C81E981FA8153
:100B90006B81892F8F70853010F080E021C022306A
:100BA00010F056E001C052E028E030E040E02E179F
:100BB0003F0720F44F5F220F331FF9CF4295407F4C
:100BC000452B991F9927991F6295660F660F607CC8
:100BD000692B9ADF882309F31F5F2596D1CF81E027
:100BE000DF91CF911F910F9108958091340187FD7E
:100BF00005C08091E80080FF0EC012C08091E8001F
:100C000082FD05C0809133018111F8CF0895809154
:100C1000E8008B7708C0809133018111EACF0895F5
:100C20008091E8008E778093E80008958091E40039
:100C30009091E50045E62091EC0020FF21C0209135
:100C4000E80020FD21C020913301222389F02530C6
:100C500089F02091EB0025FD0FC02091E400309138
:100C6000E5002817390739F3415041F0C901E3CFB6
:100C700082E0089583E0089581E0089584E0089576
:100C80002091E80022FFDFCF80E0089541D043D0DB
:100C90008091D8008F778093D8008091D8008068A9
:100CA0008093D8008091D8008F7D8093D80084E015
:100CB00089BD86E089BD09B400FEFDCF10923301E5
:100CC00010922F01109231011092300142E060E049
:100CD00080E01ADF8091E1008E7F8093E1008091B7
:100CE000E20081608093E2008091E200886080935E
:100CF000E2008091E0008E7F8093E0000895E3E6BB
:100D0000F0E080818E7F808381E080933201BECFCE
:100D10001092E20008951092E10008951F920F9240
:100D20000FB60F9211242F933F934F935F936F93BE
:100D30007F938F939F93AF93BF93EF93FF93809194
:100D4000E10082FF0AC08091E20082FF06C080912C
:100D5000E1008B7F8093E10077DB8091E10080FFF1
:100D600017C08091E20080FF13C08091E2008E7F67
:100D70008093E2008091E20080618093E2008091A4
:100D8000D80080628093D80019BC109233014FDBE9
:100D90008091E10084FF2FC08091E20084FF2BC08E
:100DA00084E089BD86E089BD09B400FEFDCF809155
:100DB000D8008F7D8093D8008091E1008F7E809352
:100DC000E1008091E2008F7E8093E2008091E2005A
:100DD00081608093E20080912F01882311F084E0EC
:100DE00007C08091E30087FF02C083E001C081E07B
:100DF000809333011BDB8091E10083FF22C080914F
:100E0000E20083FF1EC08091E100877F8093E100B4
:100E100082E08093330110922F018091E1008E7F58
:100E20008093E1008091E2008E7F8093E2008091C8
:100E3000E20080618093E20042E060E080E064DEF6
:100E400056D1FF91EF91BF91AF919F918F917F917B
:100E50006F915F914F913F912F910F900FBE0F9027
:100E60001F9018951F93CF93DF93CDB7DEB7AA9746
:100E70000FB6F894DEBF0FBECDBFE4E3F1E0809182
:100E8000F100819321E0EC33F207C9F7DADA8091BF
:100E9000E80083FF14C12091340130913501832F84
:100EA00090E08A30910508F00AC1FC01E65CFF4F32
:100EB0003BC1203881F0223809F001C1809138010E
:100EC0008F708093E9008091EB0085FB882780F983
:100ED0001092E90006C0809130019091310191118A
:100EE00082609091E800977F9093E8008093F100F2
:100EF0001092F100C1C0822F8D7F09F0E0C0222343
:100F000019F0223061F0DBC080913601813009F0A8
:100F1000D6C0333009F080E08093310128C0809141
:100F20003601811124C0209138012F7009F4C7C007
:100F30002093E9008091EB0080FF19C08091EB00C5
:100F4000333011F4806211C080618093EB0081E046
:100F500090E0022E01C0880F0A94EAF78093EA001D
:100F60001092EA008091EB0088608093EB00109271
:100F7000E9008091E800877F82C02111A0C0109114
:100F800036011F778091E3008078812B8093E30006
:100F90008091E800877F8093E80027DE8091E80059
:100FA00080FFFCCF8091E30080688093E3001123F1
:100FB00011F083E001C082E08093330180C02058AB
:100FC000223008F07CC080913601909137018C3D31
:100FD00023E0920771F583E08A838AE289834FB721
:100FE000F894DE01139620E03EE051E2E32FF0E0BA
:100FF00050935700E49120FF03C0E295EF703F5FEC
:10100000EF708E2F90E0EA3010F0C79601C0C096C6
:101010008D939D932F5F243149F74FBF8091E80056
:10102000877F8093E8006AE270E0CE01019671DC70
:1010300012C0AE014F5F5F4F6091380198D80097A2
:1010400009F43DC02091E800277F2093E800BC010F
:1010500089819A81F9DC8091E8008B778093E800A0
:101060002EC0203861F58091E800877F8093E800EA
:1010700080912F018093F1008091E8008E7780931A
:10108000E800B3DD1CC021111AC0909136019230E6
:10109000B0F48091E800877F8093E80090932F015F
:1010A000A4DD80912F01811104C08091E30087FFAE
:1010B00002C084E001C081E080933301B9D98091FE
:1010C000E80083FF0AC08091E800877F8093E800F2
:1010D0008091EB0080628093EB00AA960FB6F894A3
:1010E000DEBF0FBECDBFDF91CF911F910895089550
:1010F000CF93809133018823A9F08091E9008F700C
:101100009091EC0090FF02C090E801C090E0C92FE0
:10111000C82B1092E9008091E80083FDA3DECF7018
:10112000C093E900CF910895EE0FFF1F0590F49151
:10113000E02D0994FB01DC0104C08D910190801920
:1011400021F441505040C8F7881B990B0895FB01CA
:10115000DC0102C001900D9241505040D8F7089533
:10116000DC0101C06D9341505040E0F70895F894C0
:02117000FFCFAF
:10117200100800810800000127010800000000009B
:0211820000006B
:00000001FF
